:100000000C9474000C949C0B0C94750B0C949C0039
:100010000C949C000C949C000C949C000C949C00F0
:100020000C949C000C949C000C949C000C949C00E0
:100030000C949C000C949C000C949C000C949C00D0
:100040000C942B0B0C949C000C94F90A0C94D30A7E
:100050000C949C000C949C000C949C000C949C00B0
:100060000C94C30B0C949C00084AD73B3BCE016E0A
:1000700084BCBFFDC12F3D6C74319ABD56833DDAFF
:100080003D00C77F11BED9E4BB4C3E916BAAAABE0E
:10009000000000803F000000000800020100000393
:1000A0000407000000000000000000000000250020
:1000B00028002B0000000000240027002A00040470
:1000C0000404040404040202020202020303030300
:1000D00003030102040810204080010204081020DC
:1000E000010204081020E20C11241FBECFEFD8E05B
:1000F000DEBFCDBF23E0A6E4B1E001C01D92AA3B64
:10010000B207E1F711E0A0E0B1E0E0EBF5E202C0F8
:1001100005900D92A634B107D9F710E0C4E7D0E0FE
:1001200004C02197FE010E94D012C337D107C9F73E
:100130000E943C0E0C94D6120C94000090E0FC013E
:10014000EE52FF4F249182549F4FFC0184918823EB
:1001500099F090E0880F991FFC01EC54FF4FA59196
:10016000B491FC01E655FF4F859194918FB7F894B7
:10017000EC91E22BEC938FBF089508950895AF9210
:10018000BF92CF92DF92EF92FF920F931F93CF9384
:10019000DF936C017B018B01040F151FEB015E01E6
:1001A000AE18BF08C017D10759F06991D601ED917B
:1001B000FC910190F081E02DC6010995892B79F71A
:1001C000C501DF91CF911F910F91FF90EF90DF90CC
:1001D000CF90BF90AF900895FC01538D448D252F93
:1001E00030E0842F90E0821B930B541710F0CF96D1
:1001F000089501970895FC01918D828D981761F003
:10020000A28DAE0FBF2FB11D5D968C91928D9F5F19
:100210009F73928F90E008958FEF9FEF0895FC01F8
:10022000918D828D981731F0828DE80FF11D858DAB
:1002300090E008958FEF9FEF0895FC01918D228D3E
:10024000892F90E0805C9F4F821B91098F739927C3
:1002500008958FE292E00E941D0121E0892B09F4AC
:1002600020E0822F089580E090E0892B29F00E9401
:10027000290181110C9400000895FC01A48DA80FA0
:10028000B92FB11DA35ABF4F2C91848D90E00196D8
:100290008F739927848FA689B7892C93A089B189F8
:1002A0008C91837080648C93938D848D981306C099
:1002B0000288F389E02D80818F7D80830895EF92FD
:1002C000FF920F931F93CF93DF93EC0181E0888F10
:1002D0009B8D8C8D98131AC0E889F989808185FFE0
:1002E00015C09FB7F894EE89FF896083E889F98982
:1002F00080818370806480839FBF81E090E0DF9184
:10030000CF911F910F91FF90EF900895F62E0B8DD6
:1003100010E00F5F1F4F0F731127E02E8C8D8E1191
:100320000CC00FB607FCFACFE889F989808185FFF8
:10033000F5CFCE010E943D01F1CFEB8DEC0FFD2FEB
:10034000F11DE35AFF4FF0829FB7F8940B8FEA89B3
:10035000FB8980818062CFCFCF93DF93EC01888DC2
:100360008823B9F0AA89BB89E889F9898C9185FD30
:1003700003C0808186FD0DC00FB607FCF7CF8C91BE
:1003800085FFF2CF808185FFEDCFCE010E943D0138
:10039000E9CFDF91CF91089590E0FC01EA56FF4F3D
:1003A0002491FC01EE52FF4F3491FC01E254FF4FC7
:1003B000E491EE23C9F0222339F0233001F1A8F4AF
:1003C000213019F1223029F1F0E0EE0FFF1FE65540
:1003D000FF4FA591B4918FB7F894EC91611126C0AD
:1003E00030953E233C938FBF08952730A9F02830E5
:1003F000C9F0243049F7809180008F7D03C080913F
:1004000080008F7780938000DFCF84B58F7784BDA5
:10041000DBCF84B58F7DFBCF8091B0008F77809349
:10042000B000D2CF8091B0008F7DF9CF3E2BDACFD4
:100430001F93CF93DF93182FEB010E949E0020970C
:1004400039F460E0812FDF91CF911F910C94CC01A2
:10045000CF3FD10511F461E0F5CFE12FF0E0EA568E
:10046000FF4FE491E33031F140F4E130B1F0E2309C
:10047000E1F0C038D1057CF7E4CFE73029F1E8306E
:1004800059F1E430B1F78091800080628093800060
:10049000D0938B00C0938A0004C084B5806884BD6B
:1004A000C7BDDF91CF911F91089584B5806284BD4F
:1004B000C8BDF7CF80918000806880938000D09382
:1004C0008900C0938800EDCF8091B0008068809350
:1004D000B000C093B300E5CF8091B00080628093FC
:1004E000B000C093B400DDCF2F923F924F925F9245
:1004F0006F927F928F929F92AF92BF92CF92DF9234
:10050000EF92FF920F931F93CF93DF93CDB7DEB798
:100510003C01162F342E222E4D885E88F701608113
:100520007181828193810E944212F3016083718301
:10053000828393831482158216821782148615860D
:100540001686178681E0808BF70180819181A281D8
:10055000B381F301818B928BA38BB48B158B368A7D
:10056000278AF50180819181A281B381F301808F77
:10057000918FA28FB38FF40180819181A281B38189
:10058000F301848F958FA68FB78FF20180819181BF
:10059000A281B381F30180A391A3A2A3B3A380E0BE
:1005A00090E0A0E2B2E480A791A7A2A7B3A780E061
:1005B00090E0AFE7B3E484A795A7A6A7B7A710AECE
:1005C00011AE12AE13AE14AE15AE16AE17AE81E07C
:1005D000023009F480E0E82FF0E0EE0FFF1FE0505A
:1005E000FF4FD182C082813031F1809169008360F8
:1005F00080936900E89A70E060E0F30185890E94C9
:100600001802F30186890E949E00F3018789DF9119
:10061000CF911F910F91FF90EF90DF90CF90BF90FF
:10062000AF909F908F907F906F905F904F903F9092
:100630002F900C949E00809169008C6080936900DB
:10064000E99AD9CF3FB7F8948091D5019091D6011E
:10065000A091D701B091D80126B5A89B05C02F3F26
:1006600019F00196A11DB11D3FBFBA2FA92F982FD8
:100670008827BC01CD01620F711D811D911D42E0D3
:10068000660F771F881F991F4A95D1F708952FB7D6
:10069000F8946091D1017091D2018091D301909131
:1006A000D4012FBF08950F931F930E9447036093B7
:1006B0003702709338028093390290933A028FE2A6
:1006C00092E00E94FB0097FF1DC00E94470300912B
:1006D0003702109138022091390230913A02601BA2
:1006E000710B820B930B0091330210913402209115
:1006F0003502309136026017710782079307F8F2CE
:100700008FEF9FEF1F910F91089508952091AD01F4
:10071000260F3327331F21323105ECF420910502D7
:10072000FC0190E080E0243069F082E00895A0911F
:10073000AD012191AC0143575E4FA40FB52FB11D00
:100740002C930196861798F38091AD01680F609302
:10075000AD0180E0089581E008951092050281E0E6
:10076000809304021092DF0161E082E10E94CC01DB
:1007700061E083E10E94CC01E9EBF0E080818E7FB3
:10078000808380818D7F808388E48093B80085E4B6
:100790008093BC000895CF93DF9391E090938C01F8
:1007A0008823B9F0C091B800D091BA008091BC0004
:1007B0008A7B8093BC0060E082E10E94CC0160E013
:1007C00083E10E94CC010E94AD03D093BA00C09394
:1007D000B800DF91CF9108958F929F92AF92BF9210
:1007E000CF92DF92EF92FF920F931F93CF93DF93FD
:1007F000D0912E02D13208F0D7C0182FC0912D020F
:100800000E9422036B017C018091050281116BC063
:1008100082E080930502109304028FEF809303021D
:1008200010920202D0930102ADE0B2E0E1EEF1E0FD
:1008300080E0D81391C01092E0018091E001CC0FCC
:10084000C82BC093E0018091DF01813009F088C09E
:100850001092DF010E9422036B017C018091E00174
:100860008093BB008091070290910802A091090239
:10087000B0910A02892B8A2B8B2BA1F00E942203B4
:1008800000910702109108022091090230910A029A
:100890006C197D098E099F09061717072807390764
:1008A00008F442C08091BC0083FDD8CF85EC8093D2
:1008B000BC000E9422036B017C0180910502823002
:1008C00009F450C0809103028F3F09F46FC08091FA
:1008D0000302803209F46CC080910302803309F472
:1008E00069C084E026C08091070290910802A0911F
:1008F0000902B0910A02892B8A2B8B2B09F484CF31
:100900000E9422038090070290900802A0900902A2
:10091000B0900A026C197D098E099F098616970608
:10092000A806B90608F070CF809106020E94CB039A
:1009300085E010920C0210922E0210920B02DF91B1
:10094000CF911F910F91FF90EF90DF90CF90BF90CC
:10095000AF909F908F9008959D9191938F5F69CFF5
:1009600085EEA5CF8091070290910802A09109021F
:10097000B0910A02892B8A2B8B2B09F49ECF0E94FF
:100980002203009107021091080220910902309180
:100990000A026C197D098E099F0906171707280797
:1009A000390708F08ACFC0CF81E0C3CF80E0C1CF44
:1009B00082E0BFCF83E0BDCF0895E091DE0180915A
:1009C000DD01E81730F4F0E0E459FE4F808190E05B
:1009D00008958FEF9FEF08959091DE018091DD01E2
:1009E0002FEF3FEF981748F4E92FF0E0E459FE4F5E
:1009F000208130E09F5F9093DE01C90108958091CE
:100A0000DD019091DE01891B990B0895CF92DF9251
:100A1000EF92FF920F931F93CF93DF937C01CB0153
:100A20008A0120910B02222389F0EB016B01C40E95
:100A3000D51ECC15DD0569F06991D701ED91FC91CA
:100A40000190F081E02DC7010995F3CF642F0E943A
:100A50008603C801DF91CF911F910F91FF90EF9016
:100A6000DF90CF900895CF93DF931F92CDB7DEB77D
:100A7000698320910B022223F9F020912E0220326B
:100A800058F021E030E0FC013383228390E080E0E5
:100A90000F90DF91CF91089580910C02E82FF0E044
:100AA000E35FFD4F998190838F5F80930C02809369
:100AB0002E0281E090E0ECCF61E0CE0101960E9431
:100AC0008603F7CF90E080E008950F931F93CF93B4
:100AD000DF93EC018B01FB018081888B8081811188
:100AE0000DC020E030E0A90169897A898B899C8951
:100AF0000E942C106CA37DA38EA39FA38E89F80166
:100B0000908197FF0BC060E00E94CC0161E08F896B
:100B1000DF91CF911F910F910C94CC0161E00E9465
:100B2000CC0160E0F4CF4F925F926F927F928F92F0
:100B30009F92AF92BF92CF92DF92EF92FF920F936C
:100B40001F93CF93DF93EC018B01C880D980EA809B
:100B5000FB80C886D986EA86FB868C849D84AE8419
:100B6000BF848C819D81AE81BF81A7019601281B26
:100B7000390B4A0B5B0BCA01B9010E94CB0F20E075
:100B800030E04AE754E40E942C102B013C01F801AC
:100B90006081718190E080E00E94CB0F9B01AC01ED
:100BA000C301B2010E94C911A50194010E94EA107B
:100BB0002DEC3CEC4CEC5DE30E942C10A501940163
:100BC0000E94EB106C877D878E879F87CC82DD82A9
:100BD000EE82FF829B01AC010E94A912882321F0C2
:100BE0001C861D861E861F86DF91CF911F910F9157
:100BF000FF90EF90DF90CF90BF90AF909F908F903D
:100C00007F906F905F904F900895E2E1F3E08089CC
:100C1000082E000C990BAA0BBB0B408151816281FD
:100C20007381840F951FA61FB71F80839183A283B2
:100C3000B3830895E2E5F3E08089082E000C990B58
:100C4000AA0BBB0B4081518162817381840F951F78
:100C5000A61FB71F80839183A283B3830895FC01ED
:100C600001900020E9F73197AF01481B590BBC01F7
:100C70008FE292E00C94BF008F929F92AF92BF924E
:100C80000F931F93CF93DF93CDB7DEB7A1970FB626
:100C9000F894DEBF0FBECDBF19A2423008F44AE07F
:100CA0008E010F5D1F4F842E912CB12CA12CA5011C
:100CB00094010E94AE12E62FB901CA01EA30F4F4A1
:100CC000E05DD801EE938D01232B242B252B79F7A2
:100CD00090E080E0109719F0CD010E942F06A196B8
:100CE0000FB6F894DEBF0FBECDBFDF91CF911F913D
:100CF0000F91BF90AF909F908F900895E95CE1CFE6
:100D00004F925F926F927F928F929F92AF92BF921B
:100D1000CF92DF92EF92FF920F931F93CF936B01CD
:100D20007C01742EAC019B010E94A912882399F0CA
:100D300088E291E0CF911F910F91FF90EF90DF90AB
:100D4000CF90BF90AF909F908F907F906F905F906B
:100D50004F900C942F0646015701E894B7F82FEFF7
:100D60003FEF4FE75FE7C501B4010E94A91281116F
:100D70000DC02FEF3FEF4FE75FE7C501B4010E94C1
:100D8000C60F18161CF48CE291E0D4CF2FEF3FEF82
:100D90004FE75FE4C701B6010E94981218161CF4D1
:100DA00080E391E0C7CF2FEF3FEF4FE75FECC70144
:100DB000B6010E94C60F87FDF3CF20E030E0A90105
:100DC000C701B6010E94C60F10E000E087FF0AC00D
:100DD0006DE28FE292E00E945F018C01F7FAF094DD
:100DE000F7F8F094C0E060E070E080E09FE37C16EC
:100DF00041F020E030E040E251E40E94C911CF5FB1
:100E0000F6CFA70196010E94EB102B013C010E9436
:100E100042124B015C014AE00E943C067C01E00E5C
:100E2000F11ECC23C1F1C501B4010E94CB0F9B017F
:100E3000AC01C301B2010E94EA104B015C016EE2F9
:100E40008FE292E00E945F01E80EF91EC15018F196
:100E500020E030E040E251E4C501B4010E942C10D2
:100E60002B013C010E9442124B01B12CA12C4AE003
:100E7000C501B4010E943C06E80EF91EC501B4018B
:100E80000E94CB0F9B01AC01C301B2010E94EA108A
:100E90004B015C01DBCFC701CF911F910F91FF90F8
:100EA000EF90DF90CF90BF90AF909F908F907F900A
:100EB0006F905F904F9008954F925F926F927F92E4
:100EC0008F929F92AF92BF92CF92DF92EF92FF925A
:100ED0000F931F93CF93DF93CDB7DEB72E970FB647
:100EE000F894DEBF0FBECDBF8C0161E08EE00E94A2
:100EF000CC018FE292E00E941D010B9708F44BC0D9
:100F0000CE0101967C015E019BE0A90EB11C670138
:100F10000E94530397FD06C0F70181937F01EA15F4
:100F2000FB05B1F70E94530397FD02C00A97D1F762
:100F300061E087E00E94CC0160E087E00E94CC0184
:100F400089819A81AB81BC8181309440A105B10532
:100F500010F58D819E81AF81B8859C5FAF4FBF4FEB
:100F600081309840A105B105B0F489858F5F833049
:100F700090F48AE0F601A4E5B1E001900D928A9523
:100F8000E1F70E9447036093460170934701809305
:100F90004801909349010E94470381E080930B022E
:100FA00088E680932D0210920C0210922E026BE3C1
:100FB0008CEC92E00E94330580E00E94EC030E94DA
:100FC00022036B017C0180910502811165C081E0E3
:100FD00080930502809304029FEF90930302109286
:100FE000020295E0909301028093E0018091E0017C
:100FF000806D8093E0018091DF01813009F071C242
:101000001092DF010E9422036B017C018091E001BC
:101010008093BB008091070290910802A091090281
:10102000B0910A02892B8A2B8B2BA1F00E942203FC
:101030008090070290900802A0900902B0900A02E6
:101040006C197D098E099F0986169706A806B906B0
:1010500008F443C08091BC0083FDD8CF85EC809319
:10106000BC000E9422036B017C018091050281304B
:1010700009F439C280910202863008F056C280918C
:101080000202A1EEB1E0ECE6F1E090E0981751F138
:101090002D9121939F5FFACF8091070290910802D2
:1010A000A0910902B0910A02892B8A2B8B2B09F49B
:1010B0008ACF0E9422038090070290900802A0909D
:1010C0000902B0900A026C197D098E099F098616E3
:1010D0009706A806B90608F076CF809106020E940E
:1010E000CB0380E01092DE018093DD018CEC92E076
:1010F0000E94EC04F82E8CEC92E00E94EC04C12CCF
:10110000DF2CC82AD92AD0924F01C0924E018CEC14
:1011100092E00E94EC04B82E8CEC92E00E94EC0469
:10112000E12CFB2CE82AF92AF0924D01E0924C01C7
:101130008CEC92E00E94EC04B82E8CEC92E00E94C1
:10114000EC0460E07B2D682B792B70934B0160934E
:101150004A01D0926701C0926601F0926901E09263
:10116000680170936B0160936A01072E000C880B75
:10117000990B0E94CD0F4B015C01B701FF0C880B4E
:10118000990B0E94CD0FA50194010E946A116093F2
:101190006201709363018093640190936501C09034
:1011A0005001D0905101E0905201F0905301A701FD
:1011B00096010E94EA102AE939E949E15FE30E94B9
:1011C0002C10A70196010E94EB109B01AC0120930B
:1011D000500130935101409352015093530160915B
:1011E0009E0370919F038091A0039091A1030E94A0
:1011F000EA106B017C01C092AA03D092AB03E0928B
:10120000AC03F092AD03209192033091930340918F
:101210009403509195030E942C1020E030E0A90126
:101220000E94EB106B877C878D879E87F801608119
:10123000718190E080E00E94CB0F2B013C01AC015A
:101240009B01C701B6010E942C102091B60330917A
:10125000B7034091B8035091B9030E94EB104B01C2
:101260005C018092B6039092B703A092B803B0924B
:10127000B9032091960330919703409198035091C0
:1012800099030E942C102B853C854D855E850E941C
:10129000EB106B877C878D879E87A5019401C50124
:1012A000B4010E94A912882341F01092B603109253
:1012B000B7031092B8031092B90320E030E04AE778
:1012C00054E460919A0370919B0380919C039091E8
:1012D0009D030E942C104B015C012091B2033091C0
:1012E000B3034091B4035091B503C701B6010E9406
:1012F000EA109B01AC01C501B4010E942C10A301AE
:1013000092010E94C9112B853C854D855E850E9406
:10131000EB104B015C01CB01D5018093AE039093A0
:10132000AF03A093B003B093B103C092B203D092C5
:10133000B303E092B403F092B503C090A203D0903F
:10134000A303E090A403F090A5039601A701B401C4
:10135000C5010E94C60F87FD12C0C090A603D090A1
:10136000A703E090A803F090A9039601A701B40198
:10137000C5010E949812181614F064017501C60187
:10138000D70180935E0190935F01A0936001B093B9
:101390006101609158017091590180915A019091B9
:1013A0005B010E94CD0F20E030E040E854E40E9451
:1013B000EB1020E030E040E05AE30E942C109B014B
:1013C000AC010E94EB109601A7010E942C104B016A
:1013D0005C0120E030E0A9010E949812181624F068
:1013E000B7FAB094B7F8B094A501940160912303C3
:1013F0007091240380912503909126030E942C1064
:1014000060933603709337038093380390933903C6
:1014100020E030E0A901B601C7010E949812BB2468
:10142000B394181614F0BB24BA94B982BE016F5F4E
:101430007F4F82E593E00E946505B982BE016F5F30
:101440007F4F82E193E00E94650542E0B601C7014B
:101450000E94800684E391E00E942F06C0905E0106
:10146000D0905F01E0906001F090610120E030E0F9
:10147000A901C701B6010E94981218160CF057C0B6
:10148000C701B6010E943B127B018AE00E9418024C
:10149000B7018BE00E941802B80182E593E00E9438
:1014A0009305B80182E193E00E94930560E08EE02D
:1014B0000E94CC012E960FB6F894DEBF0FBECDBFB2
:1014C000DF91CF911F910F91FF90EF90DF90CF9020
:1014D000BF90AF909F908F907F906F905F904F9054
:1014E000089585EEBCCD8091070290910802A091ED
:1014F0000902B0910A02892B8A2B8B2B09F4B5CDF6
:101500000E9422038090070290900802A090090296
:10151000B0900A026C197D098E099F0986169706FC
:10152000A806B90608F0A1CDD8CD86E0AACDC7019E
:10153000B6019058A7CF85ED8093BC00809107023B
:1015400090910802A0910902B0910A020796A11D8C
:10155000B11D23E0B695A795979587952A95D1F764
:101560002091BC0024FD03C0109205020895409113
:101570000702509108026091090270910A02452BFE
:10158000462B472B69F30097A105B10541F02AE2EC
:101590002A95F1F700C00197A109B109E1CF809127
:1015A00006020C94CB031F920F920FB60F921124D8
:1015B0002F933F934F935F936F937F938F939F935B
:1015C000AF93BF93EF93FF938FE292E00E943D01B0
:1015D000FF91EF91BF91AF919F918F917F916F910B
:1015E0005F914F913F912F910F900FBE0F901F90E1
:1015F00018951F920F920FB60F9211242F938F936D
:101600009F93EF93FF93E0913F02F091400280811E
:10161000E0914502F091460282FD1BC090818091CD
:1016200048028F5F8F7320914902821741F0E09149
:101630004802F0E0E15DFD4F958F80934802FF91F5
:10164000EF919F918F912F910F900FBE0F901F9050
:1016500018958081F4CF1F920F920FB60F9211242C
:101660002F933F938F939F93AF93BF938091D1011B
:101670009091D201A091D301B091D4013091D001C9
:1016800023E0230F2D3758F50196A11DB11D20939E
:10169000D0018093D1019093D201A093D301B09354
:1016A000D4018091D5019091D601A091D701B0913C
:1016B000D8010196A11DB11D8093D5019093D6014B
:1016C000A093D701B093D801BF91AF919F918F9113
:1016D0003F912F910F900FBE0F901F90189526E805
:1016E000230F0296A11DB11DD2CF1F920F920FB6EC
:1016F0000F9211242F933F934F935F936F937F9398
:101700008F939F93AF93BF93EF93FF93E091020169
:10171000F09103010995FF91EF91BF91AF919F91D6
:101720008F917F916F915F914F913F912F910F908A
:101730000FBE0F901F9018951F920F920FB60F9229
:1017400011242F933F934F935F936F937F938F93C6
:101750009F93AF93BF93EF93FF93E0910001F091BC
:1017600001010995FF91EF91BF91AF919F918F91E9
:101770007F916F915F914F913F912F910F900FBE8D
:101780000F901F9018951F920F920FB60F92112471
:101790002F933F934F935F936F937F938F939F9379
:1017A000AF93BF93EF93FF938091B900887F80360A
:1017B00009F44AC0F0F5883209F4A7C018F5803161
:1017C00009F49BC0B8F4882309F4F9C0883009F4FF
:1017D00094C0FF91EF91BF91AF919F918F917F91B5
:1017E0006F915F914F913F912F910F900FBE0F908E
:1017F0001F901895883109F488C0803251F7809382
:10180000030214C0803409F49DC040F48033B9F35E
:101810008833F9F68093030285ECB0C0803509F473
:1018200085C0883509F496C0883499F60E949B0AD1
:10183000D0CF883909F48CC038F5883729F050F4B6
:10184000883611F0803729F683E0809305021092E4
:10185000CF0157C0883809F47BC0803919F080382F
:1018600009F0B7CF8091CF01803208F071C0E091CC
:10187000CF0181E08E0F8093CF018091BB00F0E01B
:10188000E155FE4F80833DC0803B39F0E0F4803A63
:1018900009F479C0883A09F09CCF84E0809305026E
:1018A0001092AE011092AD01E091DB01F091DC01EC
:1018B00009958091AD0181110FC081E08093AD0148
:1018C00010928D0109C0803C09F4A6CF883C09F430
:1018D000A3CF883B09F07DCFE091AE0181E08E0F70
:1018E0008093AE01F0E0E357FE4F80818093BB0010
:1018F0009091AE018091AD0129C08091E00180936B
:10190000BB0085EC8093BC0064CF90910202809173
:101910000102981758F5E091020281E08E0F809342
:101920000202F0E0EF51FE4F8081E9CFE091020228
:1019300081E08E0F809302028091BB00F0E0EF51B6
:10194000FE4F808390910202809101029817C8F2A5
:1019500085E8D8CFE091020281E08E0F80930202E9
:101960008091BB00F0E0EF51FE4F80838091040234
:1019700081115CCF81E08093DF0184EA8093BC0019
:101980001092050226CF85EC8093BC0010920502D0
:101990008091CF01803230F4E091CF01F0E0E15549
:1019A000FE4F10826091CF0170E0E091D901F0917B
:1019B000DA018FEA91E009951092CF010ACF1092D7
:1019C000030234CF2F923F924F925F926F927F9299
:1019D0008F929F92AF92BF92CF92DF92EF92FF923F
:1019E0000F931F93CF93DF93CDB7DEB760970FB6FA
:1019F000F894DEBF0FBECDBFEFE2F2E01382128299
:101A000088EE93E0A0E0B0E084839583A683B7835B
:101A100028E031E03183208325EC30E035872487CE
:101A200024EC30E03787268720EC30E0318B208BA8
:101A300021EC30E0338B228B22EC30E0358B248B91
:101A400026EC30E0378B268B118E128E138E148E7F
:101A5000ECECF2E01382128284839583A683B78331
:101A60008AE191E091838083E2E9F3E080E090E015
:101A7000A8E4B2E480839183A283B38380E090E002
:101A8000A0E2B1E484839583A683B7831086118690
:101A90001286138680E090E0A0E2B2E4808B918B06
:101AA000A28BB38B80E090E0AFE7B3E4848B958B9F
:101AB000A68BB78B10A211A212A213A214A215A278
:101AC00016A217A28DEC9CECACECBDE38D879E8733
:101AD000AF87B88B8FE692E1A3E8BAE389879A874C
:101AE000AB87BC87212C312C80E8482E8FE3582E01
:101AF0002D823E824F82588680E090E0A0E4B3E4DD
:101B000089839A83AB83BC833E019DE0690E711C7F
:101B10007F926F92DE0119964D01FE0135965F01AD
:101B20009AE1C92E96E0D92ECE0101967C0102E001
:101B300027E046E06AE082E593E00E9474028DECC3
:101B40009CECACECBDE38D879E87AF87B88B8FE6AE
:101B500092E1A3E8BAE389879A87AB87BC872D8295
:101B60003E824F82588680E090E0A0E4B3E489830F
:101B70009A83AB83BC837F926F9225E0C22E26E0CE
:101B8000D22E03E025E044E06BE082E193E00E9486
:101B9000740200E013E0F80182859385A485B58581
:101BA0004481558166817781840F951FA61FB71FD9
:101BB00080839183A283B3838AE090E0A0E0B0E0C9
:101BC00084839583A683B7838CE597E0918780878C
:101BD0000E944703D8011A966D937D938D939C9331
:101BE0001D97E8EDF2E080E090E0A0E0B0E48083B3
:101BF0009183A283B38380E090E0A0EAB0E4848381
:101C00009583A683B783208631864286538680E0FB
:101C100090E0A0E2B2E4808B918BA28BB38B80E04A
:101C200090E0AFE7B3E4848B958BA68BB78B10A2C3
:101C300011A212A213A214A215A216A217A20F900B
:101C40000F900F900F9060960FB6F894DEBF0FBE06
:101C5000CDBFDF91CF911F910F91FF90EF90DF905B
:101C6000CF90BF90AF909F908F907F906F905F903C
:101C70004F903F902F900895CF93DF9300D0CDB732
:101C8000DEB7789484B5826084BD84B5816084BDFC
:101C900085B5826085BD85B5816085BD80916E000A
:101CA000816080936E00109281008091810082603B
:101CB0008093810080918100816080938100809178
:101CC00080008160809380008091B1008460809367
:101CD000B1008091B00081608093B00080917A0063
:101CE000846080937A0080917A00826080937A0089
:101CF00080917A00816080937A0080917A00806878
:101D000080937A001092C100E0913F02F09140026E
:101D100082E08083E0913B02F0913C021082E091EE
:101D20003D02F0913E0280E1808310924702E091F3
:101D30004302F091440286E08083E0914102F091F9
:101D40004202808180618083E0914102F0914202F1
:101D5000808188608083E0914102F091420280811D
:101D600080688083E0914102F091420280818F7D02
:101D7000808387E391E00E942F06609104037091B5
:101D8000050380910603909107030E94CB0F9B01EE
:101D9000AC0160E070E08AE794E40E94C91142E07F
:101DA0000E94800683E491E00E942F0684E391E084
:101DB0000E942F061092DE011092DD0110920C029B
:101DC00010922E020E94AD038DEB90E09093DC0107
:101DD0008093DB018EEB90E09093DA018093D90140
:101DE00011E010930B0288E680932D026BE68CECD9
:101DF00092E00E94330560E08CEC92E00E94330593
:101E000081E00E94EC0380E090E0AFE7B3EC8093C8
:101E1000A2039093A303A093A403B093A50380E02F
:101E200090E0AFE7B3E48093A6039093A703A09359
:101E3000A803B093A90310929E0310929F031092DF
:101E4000A0031092A1031092E4021092E5021092F6
:101E5000E6021092E7028BED9FE0A9ECBEEB8093C7
:101E6000E8029093E902A093EA02B093EB028BEDB3
:101E70009FE0A9ECBEE38093EC029093ED02A09367
:101E8000EE02B093EF021983BE016F5F7F4F82E5D0
:101E900093E00E9465051983BE016F5F7F4F82E169
:101EA00093E00E9465058EE00E949E008DE00E94F6
:101EB0009E0000E010E00E94470360930E037093C1
:101EC0000F03809310039093110380900003909070
:101ED0000103A0900203B0900303681579058A05F9
:101EE0009B0598F1C0900403D0900503E090060391
:101EF000F0900703C80CD91CEA1CFB1CC09200031D
:101F0000D0920103E0920203F0920303E0910803F0
:101F1000F091090320910A0330910B03621B730BAC
:101F20007A836983CE010196099580910E03909181
:101F30000F03A0911003B091110380930A039093B3
:101F40000B03A0930C03B0930D03C0900003D0903B
:101F50000103E0900203F09003030E944703C616BA
:101F6000D706E806F90680F461E08DE00E94CC0116
:101F70000115110509F49FCF0E942901882309F456
:101F80009ACF0E94000097CF60E0EFCF0E94081028
:101F900008F481E00895E89409C097FB3EF4909519
:101FA0008095709561957F4F8F4F9F4F9923A9F032
:101FB000F92F96E9BB279395F695879577956795C1
:101FC000B795F111F8CFFAF4BB0F11F460FF1BC005
:101FD0006F5F7F4F8F4F9F4F16C0882311F096E998
:101FE00011C0772321F09EE8872F762F05C0662346
:101FF00071F096E8862F70E060E02AF09A95660FFF
:10200000771F881FDAF7880F9695879597F90895B7
:10201000990F0008550FAA0BE0E8FEEF16161706F9
:10202000E807F907C0F012161306E407F50798F061
:10203000621B730B840B950B39F40A2661F0232B7A
:10204000242B252B21F408950A2609F4A140A695F6
:102050008FEF811D811D08950E943F100C94B010D8
:102060000E94A21038F00E94A91020F0952311F0D0
:102070000C9499100C949F1011240C94E4100E945D
:10208000C11070F3959FC1F3950F50E0551F629FEB
:10209000F001729FBB27F00DB11D639FAA27F00DC1
:1020A000B11DAA1F649F6627B00DA11D661F829FE8
:1020B0002227B00DA11D621F739FB00DA11D621FCD
:1020C000839FA00D611D221F749F3327A00D611DEA
:1020D000231F849F600D211D822F762F6A2F1124CC
:1020E0009F5750409AF0F1F088234AF0EE0FFF1FFF
:1020F000BB1F661F771F881F91505040A9F79E3F56
:10210000510580F00C9499100C94E4105F3FE4F3B7
:10211000983ED4F3869577956795B795F795E795AB
:102120009F5FC1F7FE2B880F911D9695879597F9B4
:10213000089597F99F6780E870E060E008959FEF49
:1021400080EC089500240A9416161706180609064E
:10215000089500240A94121613061406050608951D
:10216000092E0394000C11F4882352F0BB0F40F4A5
:10217000BF2B11F460FF04C06F5F7F4F8F4F9F4FE5
:10218000089557FD9058440F551F59F05F3F71F067
:102190004795880F97FB991F61F09F3F79F08795CE
:1021A0000895121613061406551FF2CF4695F1DF57
:1021B00008C0161617061806991FF1CF86957105E7
:1021C000610508940895E894BB2766277727CB011B
:1021D00097F908955058BB27AA270E9402110C9422
:1021E000B0100E94A21038F00E94A91020F039F41B
:1021F0009F3F19F426F40C949F100EF4E095E7FB32
:102200000C949910E92F0E94C11058F3BA17620775
:1022100073078407950720F079F4A6F50C94E31072
:102220000EF4E0950B2EBA2FA02D0B01B9019001F1
:102230000C01CA01A0011124FF27591B99F0593F35
:1022400050F4503E68F11A16F040A22F232F342F7D
:102250004427585FF3CF469537952795A795F040CB
:102260005395C9F77EF41F16BA0B620B730B840BE0
:10227000BAF09150A1F0FF0FBB1F661F771F881F98
:10228000C2F70EC0BA0F621F731F841F48F48795F0
:1022900077956795B795F7959E3F08F0B0CF9395E2
:1022A000880F08F09927EE0F9795879508950E945B
:1022B000A21060F080E891E009F49EEF0E94A9105E
:1022C00028F040E851E071F45EEF0CC00C949F10D0
:1022D0000C94E310E92FE0780E94C11040F3092E1E
:1022E000052AB1F3261737074807590738F00E2E8D
:1022F00007F8E02569F0E025E0640AC0EF6307F81D
:10230000009407FADB01B9019D01DC01CA01AD01AE
:10231000EF930E94E0110E94B0100E949A115F9109
:10232000552339F02BED3FE049E450FD49EC0C9486
:10233000EB100895DF93DD27B92FBF7740E85FE307
:102340001616170648075B0718F4D92F0E949D122E
:102350009F938F937F936F930E94A512E8E6F0E01E
:102360000E9471120E94B0102F913F914F915F9186
:102370000E943F10DD2351F09058A2EA2AED3FE081
:1023800049EC5FE3D0785D270E940211DF910C9445
:10239000B0100E94DD110C94B0100E94A91058F0EA
:1023A0000E94A21040F029F45F3F29F00C9499108C
:1023B00051110C94E4100C949F100E94C11068F30A
:1023C0009923B1F3552391F3951B550BBB27AA27EE
:1023D00062177307840738F09F5F5F4F220F331F28
:1023E000441FAA1FA9F335D00E2E3AF0E0E832D0F0
:1023F00091505040E695001CCAF72BD0FE2F29D0F3
:10240000660F771F881FBB1F261737074807AB07C4
:10241000B0E809F0BB0B802DBF01FF2793585F4F39
:102420003AF09E3F510578F00C9499100C94E4100A
:102430005F3FE4F3983ED4F3869577956795B7951B
:10244000F7959F5FC9F7880F911D9695879597F926
:102450000895E1E0660F771F881FBB1F621773079F
:102460008407BA0720F0621B730B840BBA0BEE1FB4
:1024700088F7E09508950E9442126894B1110C9477
:10248000E41008950E94C91088F09F5798F0B92F62
:102490009927B751B0F0E1F0660F771F881F991F99
:1024A0001AF0BA95C9F714C0B13091F00E94E31048
:1024B000B1E008950C94E310672F782F8827B85F58
:1024C00039F0B93FCCF3869577956795B395D9F7F1
:1024D0003EF490958095709561957F4F8F4F9F4FFB
:1024E0000895DF93CF931F930F93FF92EF92DF92A4
:1024F0007B018C01689406C0DA2EEF010E943F1028
:10250000FE01E894A5912591359145915591A6F349
:10251000EF010E940211FE019701A801DA9469F708
:10252000DF90EF90FF900F911F91CF91DF91089571
:102530000E94081008F48FEF08959B01AC0160E041
:1025400070E080E89FE30C94C9119B01AC010C94EE
:102550002C100E940810880B990B0895A1E21A2EE6
:10256000AA1BBB1BFD010DC0AA1FBB1FEE1FFF1F37
:10257000A217B307E407F50720F0A21BB30BE40B87
:10258000F50B661F771F881F991F1A9469F76095CE
:102590007095809590959B01AC01BD01CF01089588
:1025A000EE0FFF1F0590F491E02D0994F894FFCFF2
:1025B00085038503000000005F01BF00EC00AC0153
:1025C0001D01FB000F010000000033050605620538
:1025D000DC04FF04EC04DD046E616E00696E6600CD
:1025E0006F7666000D0A0052756E6E696E67206127
:0625F000742000487A008F
:00000001FF
